:100000000C9458000C9480000C9480000C94800098
:100010000C9480000C9480000C9480000C94800060
:100020000C9480000C9480000C9480000C94800050
:100030000C9480000C9480000C9480000C94800040
:100040000C9463030C9480000C9480000C9480004A
:100050000C9480000C9480000C9480000C94800020
:100060000C94AD030C9480000000000025002800D3
:100070002B00040404040404040402020202020229
:10008000030303030303010204081020408001025C
:1000900004081020010204081020000000080002DB
:1000A00001000003040700000000000000007C05C0
:1000B00011241FBECFEFD8E0DEBFCDBF11E0A0E01E
:1000C000B1E0EAE2FBE002C005900D92A231B10777
:1000D000D9F721E0A2E1B1E001C01D92A23EB20732
:1000E000E1F710E0C8E5D0E004C02197FE010E94CE
:1000F0008D05C735D107C9F70E94CC040C94930530
:100100000C9400000895089590E0FC01E656FF4F1E
:100110002491FC01EA57FF4F3491FC01EE58FF4F48
:10012000E491EE23C9F0222339F0233001F1A8F441
:10013000213019F1223029F1F0E0EE0FFF1FE859CC
:10014000FF4FA591B4918FB7F894EC91611126C03F
:1001500030953E233C938FBF08952730A9F0283077
:10016000C9F0243049F7809180008F7D03C08091D1
:1001700080008F7780938000DFCF84B58F7784BD38
:10018000DBCF84B58F7DFBCF8091B0008F778093DC
:10019000B000D2CF8091B0008F7DF9CF3E2BDACF67
:1001A0003FB7F8948091CA019091CB01A091CC0106
:1001B000B091CD0126B5A89B05C02F3F19F001963F
:1001C000A11DB11D3FBFBA2FA92F982F8827BC01B1
:1001D000CD01620F711D811D911D42E0660F771FD9
:1001E000881F991F4A95D1F708958F929F92AF92D9
:1001F000BF92CF92DF92EF92FF924B015C010E947F
:10020000D0006B017C010E94D0006C197D098E0921
:100210009F09683E734081059105A8F321E0821A89
:100220009108A108B10888EEC80E83E0D81EE11C31
:10023000F11C81149104A104B10429F7FF90EF90FF
:10024000DF90CF90BF90AF909F908F9008952091B6
:100250007B01260F3327331F21323105ECF4209127
:100260009F01FC0190E080E0243069F082E0089575
:10027000A0917B012191AC01455A5E4FA40FB52F8F
:10028000B11D2C930196861798F380917B01680F1E
:1002900060937B0180E0089581E0089510929F01B2
:1002A00081E08093A1011092A00161E082E10E94AF
:1002B000840061E083E10E948400E9EBF0E080814A
:1002C0008E7F808380818D7F808388E48093B800D7
:1002D00085E48093BC000895CF93DF9391E09093E1
:1002E0005A018823B9F0C091B800D091BA0080912A
:1002F000BC008A7B8093BC0060E082E10E948400A5
:1003000060E083E10E9484000E944E01D093BA0015
:10031000C093B800DF91CF9108950895E091D50181
:100320008091D401E81730F4F0E0EB5CFE4F80815F
:1003300090E008958FEF9FEF08959091D5018091FF
:10034000D4012FEF3FEF981748F4E92FF0E0EB5C72
:10035000FE4F208130E09F5F9093D501C901089541
:100360008091D4019091D501891B990B0895CF926A
:10037000DF92EF92FF920F931F93CF93DF937C0155
:10038000CB018A0120913401222389F0EB016B011A
:10039000C40ED51ECC15DD0569F06991D701ED912C
:1003A000FC910190F081E02DC7010995F3CF642FF6
:1003B0000E942701C801DF91CF911F910F91FF90FB
:1003C000EF90DF90CF900895CF93DF931F92CDB73A
:1003D000DEB76983209134012223F9F02091D20104
:1003E000203258F021E030E0FC013383228390E09A
:1003F00080E00F90DF91CF9108958091D301E82F95
:10040000F0E0EC5EFE4F998190838F5F8093D30183
:100410008093D20181E090E0ECCF61E0CE010196C3
:100420000E942701F7CF90E080E00895CF92DF92FD
:10043000EF92FF920F931F93CF9391E0909334012B
:1004400090E2909312011092D3011092D201682F82
:1004500086ED91E00E94E401C091D201C13208F022
:1004600091C00E94D0006B017C0180919F0181119D
:1004700064C082E080939F0181E08093A1018FEFAF
:1004800080939E011092C301C093C201A4E1B1E028
:10049000E2EAF1E080E0C81383C01092C4018091C9
:1004A000C40180648093C4018091A001813009F06F
:1004B0007BC01092A0010E94D0006B017C01809152
:1004C000C4018093BB008091560190915701A09187
:1004D0005801B0915901892B8A2B8B2B99F00E94DE
:1004E000D000009156011091570120915801309190
:1004F00059016C197D098E099F09061717072807EE
:100500003907E0F18091BC0083FDD9CF85EC809361
:10051000BC000E94D0006B017C0180919F01823061
:1005200009F444C080919E018F3F61F180919E014A
:10053000803241F180919E0125C0809156019091B9
:100540005701A0915801B0915901892B8A2B8B2B0F
:1005500009F48BCF0E94D0000091560110915701F1
:1005600020915801309159016C197D098E099F091C
:10057000061717072807390708F077CF809155012C
:100580000E946C011092D3011092D201109234019A
:10059000CF911F910F91FF90EF90DF90CF90089532
:1005A0009D9191938F5F77CF85EEB1CF809156016A
:1005B00090915701A0915801B0915901892B8A2B34
:1005C0008B2B09F4AACF0E94D00000915601109104
:1005D000570120915801309159016C197D098E09FC
:1005E0009F09061717072807390708F096CFC6CFC7
:1005F00085ED8093BC008091560190915701A091A8
:100600005801B09159010796A11DB11D23E0B6957F
:10061000A795979587952A95D1F72091BC0024FD41
:1006200003C010929F0108954091560150915701C7
:100630006091580170915901452B462B472B69F366
:100640000097A105B10541F025E32A95F1F70000D7
:100650000197A109B109E1CF809155010C946C017A
:10066000CF93C0911301C07FC82B8C2F0E9416021C
:100670008C2F80620E9416028C2F8F7D8093130135
:100680000E9416028BE891E00197F1F7CF9108954F
:10069000CF93C82F80911301662399F080618093D6
:1006A00013018C2F82958F700E9430038C2F8F70D6
:1006B0000E94300362E070E080E090E0CF910C9403
:1006C000F5008F7EECCF1F920F920FB60F92112480
:1006D0002F933F938F939F93AF93BF938091C601C6
:1006E0009091C701A091C801B091C9013091C50195
:1006F00023E0230F2D3758F50196A11DB11D20933E
:10070000C5018093C6019093C701A093C801B0931F
:10071000C9018091CA019091CB01A091CC01B09107
:10072000CD010196A11DB11D8093CA019093CB010B
:10073000A093CC01B093CD01BF91AF919F918F91C8
:100740003F912F910F900FBE0F901F90189526E8A4
:10075000230F0296A11DB11DD2CF1F920F920FB68B
:100760000F9211242F933F934F935F936F937F9337
:100770008F939F93AF93BF93EF93FF938091B900B3
:10078000887F803609F44AC0F0F5883209F4A7C0A2
:1007900018F5803109F49BC0B8F4882309F4F9C036
:1007A000883009F494C0FF91EF91BF91AF919F9170
:1007B0008F917F916F915F914F913F912F910F900A
:1007C0000FBE0F901F901895883109F488C08032B1
:1007D00051F780939E0114C0803409F49DC040F409
:1007E0008033B9F38833F9F680939E0185ECB0C06D
:1007F000803509F485C0883509F496C0883499F6A7
:100800000E94F802D0CF883909F48CC038F58837B7
:1008100029F050F4883611F0803729F683E0809370
:100820009F0110929D0157C0883809F47BC0803920
:1008300019F0803809F0B7CF80919D01803208F01F
:1008400071C0E0919D0181E08E0F80939D018091A8
:10085000BB00F0E0E358FE4F80833DC0803B39F0A1
:10086000E0F4803A09F479C0883A09F09CCF84E03A
:1008700080939F0110927C0110927B01E091D00146
:10088000F091D101099580917B0181110FC081E028
:1008900080937B0110925B0109C0803C09F4A6CFD4
:1008A000883C09F4A3CF883B09F07DCFE0917C011F
:1008B00081E08E0F80937C01F0E0E55AFE4F80814D
:1008C0008093BB0090917C0180917B0129C0809135
:1008D000C4018093BB0085EC8093BC0064CF9091F1
:1008E000C3018091C201981758F5E091C30181E0DE
:1008F0008E0F8093C301F0E0EE55FE4F8081E9CF6B
:10090000E091C30181E08E0F8093C3018091BB0011
:10091000F0E0EE55FE4F80839091C3018091C201BB
:100920009817C8F285E8D8CFE091C30181E08E0F17
:100930008093C3018091BB00F0E0EE55FE4F8083B1
:100940008091A10181115CCF81E08093A00184EAB4
:100950008093BC0010929F0126CF85EC8093BC0051
:1009600010929F0180919D01803230F4E0919D01B1
:10097000F0E0E358FE4F108260919D0170E0E0913D
:10098000CE01F091CF018DE791E0099510929D0184
:100990000ACF10929E0134CF789484B5826084BDD2
:1009A00084B5816084BD85B5826085BD85B5816073
:1009B00085BD80916E00816080936E0010928100F1
:1009C00080918100826080938100809181008160AC
:1009D000809381008091800081608093800080916D
:1009E000B10084608093B1008091B00081608093F9
:1009F000B00080917A00846080937A0080917A00C0
:100A0000826080937A0080917A00816080937A007E
:100A100080917A00806880937A001092C1001092D1
:100A2000D5011092D4011092D3011092D2010E94EC
:100A30004E0182E890E09093D1018093D00183E849
:100A400090E09093CF018093CE0162E370E080E06C
:100A500090E00E94F50083E00E94300365E070E0C2
:100A600080E090E00E94F50083E00E94300365E0A2
:100A700070E080E090E00E94F50083E00E94300387
:100A800065E070E080E090E00E94F50082E00E9466
:100A9000300365E070E080E090E00E94F50060E0E7
:100AA00088E20E94480360E08CE00E94480360E016
:100AB00086E00E94480360E081E00E94480365E010
:100AC00070E080E090E00E94F50061E083E40E9425
:100AD000480361E081E60E94480361E089E60E94E4
:100AE000480361E08FE60E944803C0E0D0E0209711
:100AF000F1F30E940000FBCFE6EDF1E013821282D9
:100B000088EE93E0A0E0B0E084839583A683B7836A
:100B100084E091E0918380830895EE0FFF1F05909C
:0A0B2000F491E02D0994F894FFCF42
:100B2A0000000000E401B70113028D01B0019D012C
:020B3A008E012A
:00000001FF
